{
  "_format": "hh-sol-artifact-1",
  "contractName": "TodoList",
  "sourceName": "contracts/TodoList.sol",
  "abi": [
    {
      "anonymous": false,
      "inputs": [
        {
          "indexed": false,
          "internalType": "uint256",
          "name": "id",
          "type": "uint256"
        }
      ],
      "name": "TaskCompleted",
      "type": "event"
    },
    {
      "anonymous": false,
      "inputs": [
        {
          "indexed": false,
          "internalType": "uint256",
          "name": "id",
          "type": "uint256"
        },
        {
          "indexed": false,
          "internalType": "string",
          "name": "content",
          "type": "string"
        },
        {
          "indexed": false,
          "internalType": "bool",
          "name": "completed",
          "type": "bool"
        }
      ],
      "name": "TaskCreated",
      "type": "event"
    },
    {
      "inputs": [
        {
          "internalType": "string",
          "name": "_content",
          "type": "string"
        }
      ],
      "name": "createTask",
      "outputs": [],
      "stateMutability": "nonpayable",
      "type": "function"
    },
    {
      "inputs": [],
      "name": "getTasks",
      "outputs": [
        {
          "components": [
            {
              "internalType": "uint256",
              "name": "id",
              "type": "uint256"
            },
            {
              "internalType": "string",
              "name": "content",
              "type": "string"
            },
            {
              "internalType": "bool",
              "name": "completed",
              "type": "bool"
            }
          ],
          "internalType": "struct TodoList.Task[]",
          "name": "",
          "type": "tuple[]"
        }
      ],
      "stateMutability": "view",
      "type": "function"
    },
    {
      "inputs": [
        {
          "internalType": "uint256",
          "name": "_id",
          "type": "uint256"
        }
      ],
      "name": "toggleCompleted",
      "outputs": [],
      "stateMutability": "nonpayable",
      "type": "function"
    }
  ],
  "bytecode": "0x608060405234801561001057600080fd5b50610b78806100206000396000f3fe608060405234801561001057600080fd5b50600436106100415760003560e01c806304a87e3814610046578063111002aa14610064578063455f502414610080575b600080fd5b61004e61009c565b60405161005b9190610858565b60405180910390f35b61007e60048036038101906100799190610627565b6101ee565b005b61009a60048036038101906100959190610668565b610395565b005b60606000803373ffffffffffffffffffffffffffffffffffffffff1673ffffffffffffffffffffffffffffffffffffffff168152602001908152602001600020805480602002602001604051908101604052809291908181526020016000905b828210156101e557838290600052602060002090600302016040518060600160405290816000820154815260200160018201805461013990610a12565b80601f016020809104026020016040519081016040528092919081815260200182805461016590610a12565b80156101b25780601f10610187576101008083540402835291602001916101b2565b820191906000526020600020905b81548152906001019060200180831161019557829003601f168201915b505050505081526020016002820160009054906101000a900460ff161515151581525050815260200190600101906100fc565b50505050905090565b6000600160003373ffffffffffffffffffffffffffffffffffffffff1673ffffffffffffffffffffffffffffffffffffffff1681526020019081526020016000205490506000803373ffffffffffffffffffffffffffffffffffffffff1673ffffffffffffffffffffffffffffffffffffffff16815260200190815260200160002060405180606001604052808381526020018481526020016000151581525090806001815401808255809150506001900390600052602060002090600302016000909190919091506000820151816000015560208201518160010190805190602001906102dd929190610507565b5060408201518160020160006101000a81548160ff0219169083151502179055505050600160003373ffffffffffffffffffffffffffffffffffffffff1673ffffffffffffffffffffffffffffffffffffffff168152602001908152602001600020600081548092919061035090610a44565b91905055507f05d0fb833127fc08168556d0e7ca9554fc3f6bc843b3b7d2bf1c35aea6bab66081836000604051610389939291906108b5565b60405180910390a15050565b600160003373ffffffffffffffffffffffffffffffffffffffff1673ffffffffffffffffffffffffffffffffffffffff168152602001908152602001600020548110610416576040517f08c379a000000000000000000000000000000000000000000000000000000000815260040161040d9061087a565b60405180910390fd5b60008060003373ffffffffffffffffffffffffffffffffffffffff1673ffffffffffffffffffffffffffffffffffffffff168152602001908152602001600020828154811061048e577f4e487b7100000000000000000000000000000000000000000000000000000000600052603260045260246000fd5b906000526020600020906003020190508060020160009054906101000a900460ff16158160020160006101000a81548160ff0219169083151502179055507fc1fa7142cfb933d0855114a3bffde296944c30b727f297c14d0db4d553d3a5c7826040516104fb919061089a565b60405180910390a15050565b82805461051390610a12565b90600052602060002090601f016020900481019282610535576000855561057c565b82601f1061054e57805160ff191683800117855561057c565b8280016001018555821561057c579182015b8281111561057b578251825591602001919060010190610560565b5b509050610589919061058d565b5090565b5b808211156105a657600081600090555060010161058e565b5090565b60006105bd6105b884610924565b6108f3565b9050828152602081018484840111156105d557600080fd5b6105e08482856109d0565b509392505050565b600082601f8301126105f957600080fd5b81356106098482602086016105aa565b91505092915050565b60008135905061062181610b2b565b92915050565b60006020828403121561063957600080fd5b600082013567ffffffffffffffff81111561065357600080fd5b61065f848285016105e8565b91505092915050565b60006020828403121561067a57600080fd5b600061068884828501610612565b91505092915050565b600061069d83836107ea565b905092915050565b60006106b082610964565b6106ba8185610987565b9350836020820285016106cc85610954565b8060005b8581101561070857848403895281516106e98582610691565b94506106f48361097a565b925060208a019950506001810190506106d0565b50829750879550505050505092915050565b610723816109ba565b82525050565b610732816109ba565b82525050565b60006107438261096f565b61074d8185610998565b935061075d8185602086016109df565b61076681610b1a565b840191505092915050565b600061077c8261096f565b61078681856109a9565b93506107968185602086016109df565b61079f81610b1a565b840191505092915050565b60006107b76013836109a9565b91507f5461736b20646f6573206e6f74206578697374000000000000000000000000006000830152602082019050919050565b6000606083016000830151610802600086018261083a565b506020830151848203602086015261081a8282610738565b915050604083015161082f604086018261071a565b508091505092915050565b610843816109c6565b82525050565b610852816109c6565b82525050565b6000602082019050818103600083015261087281846106a5565b905092915050565b60006020820190508181036000830152610893816107aa565b9050919050565b60006020820190506108af6000830184610849565b92915050565b60006060820190506108ca6000830186610849565b81810360208301526108dc8185610771565b90506108eb6040830184610729565b949350505050565b6000604051905081810181811067ffffffffffffffff8211171561091a57610919610aeb565b5b8060405250919050565b600067ffffffffffffffff82111561093f5761093e610aeb565b5b601f19601f8301169050602081019050919050565b6000819050602082019050919050565b600081519050919050565b600081519050919050565b6000602082019050919050565b600082825260208201905092915050565b600082825260208201905092915050565b600082825260208201905092915050565b60008115159050919050565b6000819050919050565b82818337600083830152505050565b60005b838110156109fd5780820151818401526020810190506109e2565b83811115610a0c576000848401525b50505050565b60006002820490506001821680610a2a57607f821691505b60208210811415610a3e57610a3d610abc565b5b50919050565b6000610a4f826109c6565b91507fffffffffffffffffffffffffffffffffffffffffffffffffffffffffffffffff821415610a8257610a81610a8d565b5b600182019050919050565b7f4e487b7100000000000000000000000000000000000000000000000000000000600052601160045260246000fd5b7f4e487b7100000000000000000000000000000000000000000000000000000000600052602260045260246000fd5b7f4e487b7100000000000000000000000000000000000000000000000000000000600052604160045260246000fd5b6000601f19601f8301169050919050565b610b34816109c6565b8114610b3f57600080fd5b5056fea2646970667358221220b2ed3d11e09b6679e23bd7690cfe4ce4dfdb759620769e0efe31a2583edea54964736f6c63430008000033",
  "linkReferences": {},
  "deployedLinkReferences": {}
}